:020000040800F2
:10000000301B002071020008CD5100082D090008A6
:10001000C951000827050008CD570008000000005E
:10002000000000000000000000000000E95400088B
:100030006505000800000000E551000801560008B1
:100040008B0200088B0200088B0200088B0200085C
:100050008B0200088B0200088B0200088B0200084C
:100060008B0200088B0200088B0200088B0200083C
:100070008B0200088B0200088B0200088B0200082C
:100080008B0200088B0200088B0200088B0200081C
:100090008B0200088B0200088B0200088B0200080C
:1000A0008B0200088B0200088B0200088B020008FC
:1000B0008B0200088B0200088B0200088B020008EC
:1000C0008B0200088B0200088B0200088B020008DC
:1000D0008B0200088B0200088B0200088B020008CC
:1000E0008B0200088B0200088B0200088B020008BC
:1000F0008B0200088B0200088B0200088B020008AC
:100100008B0200088B0200088B0200088B0200089B
:100110008B0200088B0200088B0200088B0200088B
:100120008B0200088B0200088B0200088B0200087B
:100130008B0200088B0200088B0200088B0200086B
:100140008B0200088B0200088B0200088B0200085B
:100150008B0200088B0200088B0200088B0200084B
:100160008B0200088B0200088B0200088B0200083B
:100170008B0200088B0200088B0200088B0200082B
:100180008B0200088B02000800F002F800F060F813
:100190000AA090E8000C82448344AAF10107DA45E2
:1001A00001D100F055F8AFF2090EBAE80F0013F0D4
:1001B000010F18BFFB1A43F00103184740860000E7
:1001C0006086000010F8013B0A4413F0030408BFE6
:1001D00010F8014B1D1108BF10F8015B641E05D01B
:1001E00010F8016B641E01F8016BF9D1002D15D0D8
:1001F00010F8014B03F00C030C2BA1EB04040ABF15
:1002000010F8013BA4EB8314A4EB032405F10103D4
:1002100014F8016B5B1E01F8016BF9D5914238BFF0
:1002200010F8013BD1D3704700230024002500269D
:10023000103A28BF78C1FBD8520728BF30C148BF49
:100240000B6070471FB506F0F9FD1FBD10B510BD5E
:1002500000F030F91146FFF7F5FF05F083FF00F0DD
:100260004EF903B4FFF7F2FF03BC00F055F90000AC
:100270000948804709480047FEE7FEE7FEE7FEE73A
:10028000FEE7FEE7FEE7FEE7FEE7FEE70448054976
:10029000054A064B70470000055600088901000812
:1002A00030150020301B00203017002030170020B0
:1002B00030B505460B462A4613F8014B12F8010BE0
:1002C00008B1A042F8D01CB1002802D06D1CF1E7A3
:1002D000284630BD40EA0103024630B59B0710D1E5
:1002E0004FF0013400E008C208C91D1B9D4315EA08
:1002F000C41FF8D013F0FF0102F8011B0DD01B0A38
:10030000F8E711F8013B002B02F8013B05D011F88A
:10031000013B002B02F8013BF3D130BD10B5431C6B
:1003200002E010F8011B71B18107FAD14FF00132E0
:1003300002C88C1A8C4314EAC211F9D0C01A0A06FA
:1003400003D0C01E10BDC01A10BD0A0401D0801E0B
:1003500010BD0902FCD0401E10BD421E12F8013F24
:10036000002BFBD111F8013B002B02F8013BF9D126
:100370007047032A40F2308010F0030C00F0158023
:1003800011F8013BBCF1020F624498BF11F801CB98
:1003900000F8013B38BF11F8013BA2F1040298BFFD
:1003A00000F801CB38BF00F8013B11F0030300F067
:1003B0002580083AC0F0088051F8043B083A51F80B
:1003C00004CBA0E80810F5E7121D5CBF51F8043B10
:1003D00040F8043BAFF30080D20724BF11F8013B83
:1003E00011F801CB48BF11F8012B24BF00F8013BE5
:1003F00000F801CB48BF00F8012B704710B5203A38
:10040000C0F00B80B1E81850203AA0E81850B1E8CD
:100410001850A0E81850BFF4F5AF5FEA027C24BF83
:10042000B1E81850A0E8185044BF18C918C0BDE87A
:1004300010405FEA827C24BF51F8043B40F8043B43
:1004400008BF7047D20728BF31F8023B48BF11F8F8
:10045000012B28BF20F8023B48BF00F8012B704752
:100460004FF0000200B5134694469646203922BF4D
:10047000A0E80C50A0E80C50B1F12001BFF4F7AF98
:10048000090728BFA0E80C5048BF0CC05DF804EB7A
:10049000890028BF40F8042B08BF704748BF20F8E8
:1004A000022B11F0804F18BF00F8012B70477047E6
:1004B00070477047754600F02BF8AE460500694658
:1004C000534620F00700854618B020B5FFF7DEFE42
:1004D000BDE820404FF000064FF000074FF0000845
:1004E0004FF0000B21F00701AC46ACE8C009ACE8C6
:1004F000C009ACE8C009ACE8C0098D46704710B52A
:100500000446AFF300802046BDE81040FFF7A9BEC7
:1005100000487047CC14002001491820ABBEFEE70C
:1005200026000200704700BFFEE7000070B50246DB
:100530000C46FF25FF2309E012F8010B80EA0301B6
:100540000648405C80EA05030548455C201EA4F18E
:100550000106B4B2F0D143EA052070BD7B0600204D
:100560007B0700207047000030B10749096841F45B
:100570008061054A116005E00349096821F4806142
:10058000014A116070470000003C024070B504460B
:100590000A460026092502B909E0012A01D11602FE
:1005A00005E0022A01D1160201E04FF4407600F086
:1005B0009DF80546092D28D11548006820F44070A3
:1005C0001349086008460068304308600846006820
:1005D00020F0F80008600846006844F00201084373
:1005E0000B4908600846006840F48030086000F05D
:1005F0007DF805460648006820F0020004490860BE
:100600000846006820F0F8000860284670BD000029
:10061000103C024009201349096801F48031B1F50A
:10062000803F01D101201CE00E49096801F0100152
:1006300009B1062015E00B49096801F4807109B180
:1006400002200EE00749096801F0EF0109B1072017
:1006500007E00449096801F0020109B1082000E03F
:10066000092070470C3C02400348006840F00040FD
:100670000149086070470000103C024030B5024656
:100680000C46092500F032F80546092D17D10D4812
:10069000006820F440700B49086008460068086054
:1006A0000846006840F001000860147000F01EF871
:1006B00005460448006820F0010002490860284609
:1006C00030BD0000103C02400548006800F00040CA
:1006D00028B1044802490C39086003480860704793
:1006E000103C024023016745AB89EFCD08B50920D6
:1006F0000090FFF78FFF009002E0FFF78BFF009064
:100700009DF800000128F8D09DF8000008BD000009
:1007100051B18200A2F1C042126842F0010382008E
:10072000A2F1C042136009E08200A2F1C042126847
:10073000034B1A408300A3F1C0431A6070470000C6
:10074000FEFF0F00D0E901121143C2681143026994
:1007500011434269114382691143C2691143026A1C
:100760001143426A1143826A1143C26A1143026B08
:10077000114302689200A2F1C04211608168082909
:100780000BD101688900A1F1C041096841F0400224
:1007900001688900A1F1C0410A60416B0968426BA0
:1007A000526841EA0211426B926841EA0221426BAF
:1007B000928941EA0241426B128A41EA0251426B3C
:1007C000127D41EA0261426B926911430268521C38
:1007D0009200A2F1C0421160C16AB1F5804F1BD1F5
:1007E000816B0968826B526841EA0211826B9268E0
:1007F00041EA0221826B128A41EA0251826B127D28
:1008000041EA0261826B9269114302689200A2F18F
:10081000C042C2F8041107E06FF07042016889001D
:10082000A1F1C041C1F804217047F0B50A4600218A
:100830000023002400BF3DE0012505FA01F31568FF
:1008400005EA03049C4234D105684F000326BE40EC
:10085000B543056015794E00B5400668354305601F
:100860001579012D02D01579022D16D185684F001A
:100870000326BE40B543856055794E00B540866875
:1008800035438560456801268E40B543456045681F
:1008900096798E40B6B235434560C5684F00032651
:1008A000BE40B543C560D5794E00B540C6683543F6
:1008B000C560491C1029BFD3F0BDF0B5002300244A
:1008C0004D07ED0E02FA05F3CE1000F1200555F8A4
:1008D00026504E07F70E0F26BE40B543CF1000F14D
:1008E000200646F82750CE1000F1200555F8265076
:1008F00045EA0304CE1000F1200545F82640F0BD7E
:100900000246002013690B400BB1012000E00020DB
:10091000704741837047018370474FF6FF71016054
:100920000021017141718171C171704700BFFEE703
:100930002DE9FF4FEFB01E4600206E90C8213CA865
:10094000FFF78EFDC8210AA8FFF78AFD0027B846E9
:1009500000250020099018223CA103A8FFF74EFDB6
:1009600040A103C9CDE9010103A96F98FFF7A0FCDD
:1009700081464C46002C61D003A8FFF7CFFC04440D
:1009800000BF04E028466D1C3CA901F800A014F843
:1009900001ABBAF12D0FF5D1002504E028466D1CFE
:1009A0000AA901F800A014F8011B8A462F29F5D1E5
:1009B0004FF0000B09E007EB870047003CA810F858
:1009C0000B00303807440BF1010B3CA8FFF7A6FCE5
:1009D0005845F0D8709807804FF0000B0AE008EBFC
:1009E00088004FEA40080AA810F80B00303880440D
:1009F0000BF1010B0AA8FFF791FC5845EFD871984D
:100A0000A0F8008001A96F98FFF752FC81464C4680
:100A100001A8FFF783FC0444002500BF08E020780C
:100A200070552078002801DA705D7055641C6D1CCB
:100A3000A8EB0700401CA842F1DC04E06FF00100C5
:100A400073B0BDE8F08F6E98FAE70000436F6E74E4
:100A5000656E742D52616E67653A206279746573B4
:100A6000200000000D0A0D0A000000002DE9FE4FD5
:100A700080460D464FF00009CA46CB4600240020B0
:100A800002900FA103C9CDE9000169464046FFF776
:100A90000FFC07463E466846FFF740FC064400BF91
:100AA00000BF08E0307828553078002801DA285D4A
:100AB0002855761C641C0A2CF4DB4846BDE8FE8FE2
:100AC0000D0A0D0A000000002DE9F043ADF5177D79
:100AD00080460D46164664217EA8FFF7C1FC6421BE
:100AE00065A8FFF7BDFC64214CA8FFF7B9FC0027FF
:100AF0000024C82238491AA8FFF780FC642236492E
:100B0000C83101A8FFF77AFC01A91AA8FFF7D0FBAA
:100B1000814600BF00BF0A2095FBF0F100FB115099
:100B20003030C2B238467F1C4CA90A540A2095FBCB
:100B3000F0F085B2002DEEDC002406E0381B401EEC
:100B40004CA9085C7EA90855641C4CA8FFF7E6FB7D
:100B5000A042F3D8002700BF0A2096FBF0F100FB6B
:100B600011603030C2B238467F1C4CA90A540A20AA
:100B700096FBF0F086B2002EEEDC002406E0381B77
:100B8000401E4CA9085C65A90855641C4CA8FFF7D9
:100B9000C5FBA042F3D87EA901A8FFF7DEFB0FA199
:100BA00001A8FFF7DAFB65A901A8FFF7D6FB0CA1A6
:100BB00001A8FFF7D2FB0AA101A8FFF7CEFB01A90C
:100BC0001AA8FFF7CAFB1AA94046FFF783FB0020CB
:100BD0000DF5177DBDE8F083088600082D000000A4
:100BE0000D0A000010B5B2B00446C8220549684697
:100BF000FFF704FC69462046FFF76CFB002032B08B
:100C000010BD00003487000870B505460C46284624
:100C1000FFF784FB134908800846028829461248DA
:100C2000FFF7A7FB1148007840F020000F4908703B
:100C300000BF4FF4FB720021084605F0F7F964206D
:100C400005F014F9601E84B20848007800F04000F6
:100C500008B9002CEDD10548007820F04000034988
:100C6000087070BDBA080020CA100020BC0800201F
:100C70001CB50121112004F0B7FA1C2000900020BF
:100C80008DF8040003208DF8050001208DF8070081
:100C900069460648FFF7C9FD0120009002208DF843
:100CA000070069460248FFF7C0FD1CBD0010024066
:100CB0000000024010B5044614B101202C49087010
:100CC0002B480078002837D010212A48FFF718FE5B
:100CD00078B108212748FFF713FE50B104212548B9
:100CE000FFF70EFE28B101212348FFF709FE012876
:100CF00022D10A2005F0BAF800201D490870102101
:100D00001C48FFF7FDFD08B9012010BD0821194856
:100D1000FFF7F6FD08B90220F7E704211548FFF7B1
:100D2000EFFD08B90320F0E701211348FFF7E8FDC4
:100D300001281BD10420E8E710210E48FFF7E0FD51
:100D4000012813D108210B48FFF7DAFD01280DD146
:100D500004210848FFF7D4FD012807D101210648E6
:100D6000FFF7CEFD10B90120014908700020CCE743
:100D70007A060020001002400000024070B50446D0
:100D8000002617480588408845431548808846F660
:100D90000401884216D112488079012812D100201E
:100DA0000F4988712A2048812B208881002108461C
:100DB00004F02CF801200A4988712B2048812A2050
:100DC000888103E00021084604F020F804F0E8F9E7
:100DD000002602E003480480761CAE42FAD370BDC0
:100DE000AC0C00208000006C10B50446002C66D1CD
:100DF0006C498871F02008804FF4A0704880084644
:100E0000808849F2413188420BD06648808846F696
:100E10000401884205D06348808845F21031884239
:100E20001AD12C205F4908812A2048812B208881F3
:100E30000846808846F60401884205D059488088D3
:100E400045F21031884206D14FF4A0705549088010
:100E50004FF4F0704880A1E05248808845F210516C
:100E6000884210D14FF430504E4908814FF4285039
:100E700048814FF42C5088814FF4F07008804FF473
:100E8000487048808AE04748808841F6631188426C
:100E90000DD12C20434908812B2048812A208881AC
:100EA0004FF4F07008804FF44870488076E02220BC
:100EB0003C49088120204881212088816EE0012062
:100EC000384988714FF4A0700880F02048800846A7
:100ED000808849F24131884205D03248808845F205
:100EE0001031884207D12C202E4908812A204881C0
:100EF0002B2088813FE02B48808846F604018842F9
:100F000007D12C20274908812B2048812A2088815D
:100F100031E02448808845F21051884210D14FF4C6
:100F20003050204908814FF4285048814FF42C500C
:100F300088814FF4487008804FF4F07048801AE0C0
:100F40001848808841F6631188420DD12C2015493C
:100F500008812A2048812B2088814FF4487008801E
:100F60004FF4F070488006E022200E4908812120CD
:100F70004881202088810B48808846F604018842F9
:100F800005D00848808845F21031884206D14FF4D8
:100F9000F070044908804FF4A0704880002003F0EE
:100FA000BFFD10BDAC0C002070B504460D461646C2
:100FB0005B48808849F24131884205D05848808892
:100FC00045F21031884214D15549488904F0DCF8C3
:100FD000201204F0CDF8E0B204F0CAF85049888934
:100FE00004F0D2F8281204F0C3F8E8B204F0C0F814
:100FF0008CE04B48808845F21051884220D1484906
:10100000488904F0C1F8201204F0B2F84449498933
:10101000491C88B204F0B8F8E0B204F0A9F84049DD
:10102000888904F0B1F8281204F0A2F83C498989B3
:10103000491C88B204F0A8F8E8B204F099F865E019
:101040003748808841F66311884228D13448807936
:1010500020B933480088401E001B84B230494889BB
:1010600004F092F8201204F083F8E0B204F080F863
:10107000201204F07DF8E0B204F07AF8284988895B
:1010800004F082F8281204F073F8E8B204F070F863
:10109000281204F06DF8E8B204F06AF836E020484F
:1010A000808846F6040188421DD11D4880790128B8
:1010B00004D11B480088401E001B84B2184948898F
:1010C00004F062F8201204F053F8E0B204F050F893
:1010D0001349888904F058F8281204F049F8E8B256
:1010E00004F046F812E00E488079012804D10C483B
:1010F0000088401E001B84B209494889214604F03B
:1011000059F807498889294604F054F804480089A9
:10111000044908804FF0D840A0F8806070BD0000FE
:10112000AC0C00207E00006C00B5A1B00020209027
:1011300001217A2004F058F80121084604F064F8EF
:101140004FF400401E9001208DF87C0000208DF8A7
:101150007E0002208DF87D0001208DF87F001EA901
:10116000FE48FFF762FB4CF233701E9002208DF8B0
:101170007C0000208DF87E0003208DF87D0001208A
:101180008DF87F001EA9F648FFF74FFB4FF68070E1
:101190001E9002208DF87C0000208DF87E00032038
:1011A0008DF87D0001208DF87F001EA9ED48FFF726
:1011B0003CFB4FF480501E9002208DF87C000020F4
:1011C0008DF87E0003208DF87D0001208DF87F00D2
:1011D0001EA9E548FFF729FB4FF480501E9002201E
:1011E0008DF87C0000208DF87E0003208DF87D00B6
:1011F00001208DF87F001EA9DC48FFF716FB0C22AA
:101200000021D748FFF759FB0C220121D448FFF7F2
:1012100054FB0C220421D248FFF74FFB0C2205217E
:10122000CF48FFF74AFB0C220821CD48FFF745FBCA
:101230000C220921CA48FFF740FB0C220A21C848AA
:10124000FFF73BFB0C220E21C548FFF736FB0C22B3
:101250000F21C348FFF731FB0C220721C148FFF7DC
:101260002CFB0C220821BF48FFF727FB0C22092189
:10127000BC48FFF722FB0C220A21BA48FFF71DFBEE
:101280000C220B21B748FFF718FB0C221146B5487A
:10129000FFF713FB0C220D21B248FFF70EFB0C22C7
:1012A0000E21B048FFF709FB0C220F21AD48FFF7D4
:1012B00004FB0C221146AC48FFF7FFFA0C22114642
:1012C000AA48FFF7FAFA0F200890002009903C2066
:1012D0000A9000200B900C900D900E900920019028
:1012E00000200290082003900020049005900690B2
:1012F000079006200F90002010901190102012905F
:101300000020139015901490169017904FF4805071
:101310001890002019904FF480401A9000201B90E4
:1013200008A81C9001A81D900FA8FFF70BFA012137
:101330000620FFF7EDF9322004F098FD012100208E
:1013400003F038FF322004F091FD002003F0ACFBE5
:101350008749888008468088FF280ADB08468088FD
:101360004FF6FF71884204D081488088B0F5134F52
:101370007ED1D32003F008FF03F08CFB7C498880EA
:1013800003F088FB7A49888003F084FB78498880E1
:10139000084680884FF6FF7101EA00207449888072
:1013A00003F078FB724989880843714988800846B0
:1013B000808849F2413188425AD0BF2003F0E4FED0
:1013C00003F068FB6A49888003F064FB6849888001
:1013D00003F060FB6649888003F05CFB6449888009
:1013E000084680884FF6FF7101EA00206049888036
:1013F00003F050FB5E49898808435D4988800846B0
:10140000808846F6040188427AD0D42003F0BCFEDE
:1014100003F040FB5649888003F03CFB5449888028
:1014200003F038FB52498880084680884FF6FF71E8
:1014300001EA00204E49888003F02CFB4C49898842
:1014400008434B4988800846808845F2103188421D
:1014500056D04FF45A4003F097FE03F01BFB44496B
:1014600088804FF45B4003F08FFE03F013FB00E035
:1014700046E03F498880084680884FF6FF7101EAC0
:1014800000203B4988804FF45C4003F07DFE03F070
:1014900001FB374989880843354988800846808898
:1014A000B0F5004F02D145F2105088803048808856
:1014B00045F21051884223D0A12003F065FE03F0CD
:1014C000E9FA2B49888003F0E5FA29498880084623
:1014D00080884FF6FF7101EA00202549888003F0DB
:1014E000D9FA234989880843214988800846808899
:1014F00045F26171884203D141F663101C4988802E
:101500001B48808849F24131884211D018488088B0
:1015100045F2103188420BD01548808845F21051B1
:10152000884205D01248808841F6631188422DD147
:101530001048006820F00F004FF02041C1F81C0156
:101540000846D0F81C0120F47060C1F81C01084660
:10155000D0F81C0140F003000EE00000000402403F
:10156000000C02400010024000140240001802402B
:10157000AC0C00201C0100A0C1F81C010846D0F8EA
:101580001C0140F40070C1F81C0128E0FB48808871
:1015900046F60401884205D0F84880884CF205518F
:1015A00088421CD1F648006820F00F004FF020411F
:1015B000C1F81C010846D0F81C0120F47060C1F885
:1015C0001C010846D0F81C0140F00A00C1F81C01BB
:1015D0000846D0F81C0140F44060C1F81C01E748FF
:1015E000808849F2413188427ED1CF2003F0CCFD82
:1015F000002003F0BDFDC12003F0BAFD302003F050
:10160000B7FDED2003F0C0FD642003F0B1FD032021
:1016100003F0AEFD122003F0ABFD812003F0A8FD26
:10162000E82003F0B1FD852003F0A2FD102003F0B7
:101630009FFD7A2003F09CFDCB2003F0A5FD39200F
:1016400003F096FD2C2003F093FD002003F090FDA5
:10165000342003F08DFD022003F08AFDF72003F013
:1016600093FD202003F084FDEA2003F08DFD00208F
:1016700003F07EFD002003F07BFDC02003F084FD1D
:101680001B2003F075FDC12003F07EFD012003F057
:101690006FFDC52003F078FD302003F069FD302098
:1016A00003F066FDC72003F06FFDB72003F060FD77
:1016B000362003F069FD482003F05AFD3A2003F07C
:1016C00063FD552003F054FDB12003F05DFD0020C3
:1016D00003F04EFD1A2003F04BFDB62003F054FD3D
:1016E0000A2003F045FD00E097E0A22003F040FD52
:1016F000F22003F049FD002003F03AFD262003F01C
:1017000043FD012003F034FDE02003F03DFD0F20F8
:1017100003F02EFD2A2003F02BFD282003F028FDE6
:10172000082003F025FD0E2003F022FD082003F021
:101730001FFD542003F01CFDA92003F019FD4320D8
:1017400003F016FD0A2003F013FD0F2003F010FD37
:10175000002003F00DFD002003F00AFD002003F03F
:1017600007FD002003F004FDE12003F00DFD002043
:1017700003F0FEFC152003F0FBFC172003F0F8FC3F
:10178000072003F0F5FC112003F0F2FC062003F023
:10179000EFFC2B2003F0ECFC562003F0E9FC3C208E
:1017A00003F0E6FC052003F0E3FC102003F0E0FC6E
:1017B0000F2003F0DDFC3F2003F0DAFC3F2003F0B4
:1017C000D7FC0F2003F0D4FC2B2003F0DDFC00201D
:1017D00003F0CEFC002003F0CBFC012003F0C8FC9A
:1017E0003F2003F0C5FC2A2003F0CEFC002003F0CC
:1017F000BFFC002003F0BCFC002003F0B9FCEF208C
:1018000003F0B6FC112003F0BFFC782004F02EFB9F
:10181000292003F0B9FC03F021B95848808846F626
:10182000040188427ED1112003F0AEFC142004F0A4
:101830001DFBD02003F0A8FC072003F099FC4220F8
:1018400003F096FC1D2003F093FCD12003F09CFCD8
:10185000002003F08DFC1A2003F08AFC092003F01D
:1018600087FCD22003F090FC012003F081FC2220B1
:1018700003F07EFCC02003F087FC102003F078FC0E
:101880003B2003F075FC002003F072FC022003F003
:101890006FFC112003F06CFCC52003F075FC0320E5
:1018A00003F066FCC82003F06FFC002003F060FC2E
:1018B000252003F05DFC212003F05AFC052003F0F5
:1018C00057FC002003F054FC0A2003F051FC652073
:1018D00003F04EFC252003F04BFC772003F048FC7E
:1018E000502003F045FC0F2003F042FC002003F0E1
:1018F0003FFCF82003F048FC012003F039FCFE20F7
:1019000003F042FC002003F033FC022003F030FC23
:10191000202003F039FC362003F036FC082003F0C9
:1019200027FC00E02EE03A2003F02EFC552003F0C7
:101930001FFC2B2003F028FC002003F019FC0020E2
:1019400003F016FC012003F013FC3F2003F010FC11
:101950002A2003F019FC002003F00AFC002003F009
:1019600007FC012003F004FCDF2003F001FC7820D9
:1019700004F07CFA292003F007FC4CE7AC0C0020B3
:101980001C0100A0FE48808845F21031884240F0DA
:101990007C87ED2003F0F8FB012003F0E9FBFE203B
:1019A00003F0E6FBEE2003F0EFFBDE2003F0E0FBAC
:1019B000212003F0DDFBF12003F0E6FB012003F022
:1019C000D7FBDF2003F0E0FB102003F0D1FBC420A5
:1019D00003F0DAFB8F2003F0CBFBC62003F0D4FB2F
:1019E000002003F0C5FBE22003F0C2FBE22003F07D
:1019F000BFFBE22003F0BCFBBF2003F0C5FBAA2025
:101A000003F0B6FBB02003F0BFFB0D2003F0B0FBEA
:101A1000002003F0ADFB0D2003F0AAFB002003F033
:101A2000A7FB112003F0A4FB002003F0A1FB192069
:101A300003F09EFB002003F09BFB212003F098FBAA
:101A4000002003F095FB2D2003F092FB002003F013
:101A50008FFB3D2003F08CFB002003F089FB5D2011
:101A600003F086FB002003F083FB5D2003F080FB86
:101A7000002003F07DFBB12003F086FB802003F003
:101A800077FB002003F074FB8B2003F071FB002038
:101A900003F06EFB962003F06BFB002003F068FB65
:101AA000B22003F071FB002003F062FB002003F082
:101AB0005FFB022003F05CFB002003F059FB0320D6
:101AC00003F056FB002003F053FBB32003F05CFB54
:101AD000002003F04DFB002003F04AFB002003F040
:101AE00047FB002003F044FB002003F041FB0020F3
:101AF00003F03EFB002003F03BFB002003F038FB2B
:101B0000002003F035FB002003F032FB002003F03F
:101B10002FFB002003F02CFB002003F029FB00200A
:101B200003F026FB002003F023FB002003F020FB42
:101B3000002003F01DFB002003F01AFB002003F03F
:101B400017FB002003F014FB002003F011FB002022
:101B500003F00EFB002003F00BFB002003F008FB5A
:101B6000B42003F011FB8B2003F002FB002003F0F4
:101B7000FFFA962003F0FCFA002003F0F9FAA12006
:101B800003F0F6FA002003F0F3FAB52003F0FCFAB4
:101B9000022003F0EDFA002003F0EAFA032003F03C
:101BA000E7FA002003F0E4FA042003F0E1FA002051
:101BB00003F0DEFAB62003F0E7FA002003F0D8FACB
:101BC000002003F0D5FAB72003F0DEFA002003F07E
:101BD000CFFA002003F0CCFA3F2003F0C9FA00202E
:101BE00003F0C6FA5E2003F0C3FA002003F0C0FA47
:101BF000642003F0BDFA002003F0BAFA8C2003F051
:101C0000B7FA002003F0B4FAAC2003F0B1FA0020D8
:101C100003F0AEFADC2003F0ABFA002003F0A8FAE0
:101C2000702003F0A5FA002003F0A2FA902003F040
:101C30009FFA002003F09CFAEB2003F099FA0020B1
:101C400003F096FADC2003F093FA002003F090FAF8
:101C5000B82003F099FA002003F08AFA002003F07C
:101C600087FA002003F084FA002003F081FA0020B4
:101C700003F07EFA002003F07BFA002003F078FAEC
:101C8000002003F075FABA2003F07EFA242003F056
:101C90006FFA002003F06CFA002003F069FA0020CC
:101CA00003F066FAC12003F06FFA202003F060FA17
:101CB000002003F05DFA542003F05AFA002003F0EC
:101CC00057FAFF2003F054FA002003F051FAC22023
:101CD00003F05AFA0A2003F04BFA002003F048FA06
:101CE000042003F045FA002003F042FAC32003F079
:101CF0004BFA3C2003F03CFA002003F039FA3A207A
:101D000003F036FA002003F033FA392003F030FAFA
:101D1000002003F02DFA372003F02AFA002003F008
:101D200027FA3C2003F024FA002003F021FA3620A1
:101D300003F01EFA002003F01BFA322003F018FA19
:101D4000002003F015FA2F2003F012FA002003F010
:101D50000FFA2C2003F00CFA002003F009FA2920D6
:101D600003F006FA002003F003FA262003F000FA3D
:101D7000002003F0FDF9242003F0FAF9002001E02F
:101D8000AC0C002003F0F4F9242003F0F1F900205A
:101D900003F0EEF9232003F0EBF9002003F0E8F95B
:101DA0003C2003F0E5F9002003F0E2F9362003F0CF
:101DB000DFF9002003F0DCF9322003F0D9F900202C
:101DC00003F0D6F92F2003F0D3F9002003F0D0F967
:101DD0002C2003F0CDF9002003F0CAF9292003F0EC
:101DE000C7F9002003F0C4F9262003F0C1F9002050
:101DF00003F0BEF9242003F0BBF9002003F0B8F98A
:101E0000242003F0B5F9002003F0B2F9232003F0F9
:101E1000AFF9002003F0ACF9C42003F0B5F962205B
:101E200003F0A6F9002003F0A3F9052003F0A0F9C0
:101E3000002003F09DF9842003F09AF9002003F0BC
:101E400097F9F02003F094F9002003F091F918209D
:101E500003F08EF9002003F08BF9A42003F088F939
:101E6000002003F085F9182003F082F9002003F028
:101E70007FF9502003F07CF9002003F079F90C2061
:101E800003F076F9002003F073F9172003F070F9DE
:101E9000002003F06DF9952003F06AF9002003F0AB
:101EA00067F9F32003F064F9002003F061F9E620FC
:101EB00003F05EF9002003F05BF9C52003F064F93C
:101EC000322003F055F9002003F052F9442003F0CA
:101ED0004FF9002003F04CF9652003F049F9002088
:101EE00003F046F9762003F043F9002003F040F9AF
:101EF000882003F03DF9002003F03AF9C62003F0F2
:101F000043F9202003F034F9002003F031F91720C1
:101F100003F02EF9002003F02BF9012003F028F93B
:101F2000002003F025F9C72003F02EF9002003F06C
:101F30001FF9002003F01CF9002003F019F900201C
:101F400003F016F9C82003F01FF9002003F010F980
:101F5000002003F00DF9002003F00AF9002003F03F
:101F600007F9C92003F010F9002003F001F900205F
:101F700003F0FEF8002003F0FBF8002003F0F8F86F
:101F8000002003F0F5F8002003F0F2F8002003F041
:101F9000EFF8002003F0ECF8002003F0E9F800204F
:101FA00003F0E6F8002003F0E3F8002003F0E0F887
:101FB000002003F0DDF8002003F0DAF8002003F041
:101FC000D7F8002003F0D4F8E02003F0DDF8162065
:101FD00003F0CEF8002003F0CBF81C2003F0C8F883
:101FE000002003F0C5F8212003F0C2F8002003F020
:101FF000BFF8362003F0BCF8002003F0B9F8462003
:1020000003F0B6F8002003F0B3F8522003F0B0F864
:10201000002003F0ADF8642003F0AAF8002003F0DC
:10202000A7F87A2003F0A4F8002003F0A1F88B2091
:1020300003F09EF8002003F09BF8992003F098F835
:10204000002003F095F8A82003F092F8002003F098
:102050008FF8B92003F08CF8002003F089F8C42031
:1020600003F086F8002003F083F8CA2003F080F81C
:10207000002003F07DF8D22003F07AF8002003F06E
:1020800077F8D92003F074F8002003F071F8E0200D
:1020900003F06EF8002003F06BF8F32003F068F80B
:1020A000002003F065F8E12003F06EF8162003F03D
:1020B0005FF8002003F05CF81C2003F059F80020C2
:1020C00003F056F8222003F053F8002003F050F8F4
:1020D000362003F04DF8002003F04AF8452003F0C5
:1020E00047F8002003F044F8522003F041F80020A4
:1020F00003F03EF8642003F03BF8002003F038F8CA
:102100007A2003F035F8002003F032F88B2003F03A
:102110002FF8002003F02CF8992003F029F8002074
:1021200003F026F8A82003F023F8002003F020F89D
:10213000B92003F01DF8002003F01AF8C42003F0C2
:1021400017F8002003F014F8CA2003F011F800205B
:1021500003F00EF8D22003F00BF8002003F008F88B
:10216000D82003F005F8002003F002F8E02002F088
:10217000FFFF002002F0FCFFF32002F0F9FF002037
:1021800002F0F6FFE22002F0FFFF052002F0F0FF70
:10219000002002F0EDFF0B2002F0EAFF002002F029
:1021A000E7FF1B2002F0E4FF002002F0E1FF3420F3
:1021B00002F0DEFF002002F0DBFF442002F0D8FF37
:1021C000002002F0D5FF4F2002F0D2FF002002F0E5
:1021D000CFFF612002F0CCFF002002F0C9FF792080
:1021E00002F0C6FF002002F0C3FF882002F0C0FF0B
:1021F000002002F0BDFF972002F0BAFF002002F09D
:10220000B7FFA62002F0B4FF002002F0B1FFB72014
:1022100002F0AEFF002002F0ABFFC22002F0A8FFE8
:10222000002002F0A5FFC72002F0A2FF002002F06C
:102230009FFFD12002F09CFF002002F099FFD620E2
:1022400002F096FF002002F093FFDD2002F090FFE5
:10225000002002F08DFFF32002F08AFF002002F040
:1022600087FFE32002F090FF052002F081FF0020AD
:1022700002F07EFF0A2002F07BFF002002F078FFD0
:102280001C2002F075FF002002F072FF332002F0E4
:102290006FFF002002F06CFF442002F069FF002075
:1022A00002F066FF502002F063FF002002F060FFA2
:1022B000622002F05DFF002002F05AFF782002F059
:1022C00057FF002002F054FF882002F051FF002049
:1022D00002F04EFF972002F04BFF002002F048FF73
:1022E000A62002F045FF002002F042FFB72002F0D6
:1022F0003FFF002002F03CFFC22002F039FF002027
:1023000002F036FFC72002F033FF002002F030FF5A
:10231000D12002F02DFF002002F02AFFD52002F08C
:1023200027FF002002F024FFDD2002F021FF002023
:1023300002F01EFFF32002F01BFF002002F018FF46
:10234000E42002F021FF012002F012FF002002F041
:102350000FFF012002F00CFF002002F009FF022015
:1023600002F006FF002002F003FF2A2002F000FF27
:10237000002002F0FDFE3C2002F0FAFE002002F0F8
:10238000F7FE4B2002F0F4FE002002F0F1FE5D208B
:1023900002F0EEFE002002F0EBFE742002F0E8FEF8
:1023A000002002F0E5FE842002F0E2FE002002F0B0
:1023B000DFFE932002F0DCFE002002F0D9FEA22016
:1023C00002F0D6FE002002F0D3FEB32002F0D0FED1
:1023D000002002F0CDFEBE2002F0CAFE002002F076
:1023E000C7FEC42002F0C4FE002002F0C1FECD20D2
:1023F00002F0BEFE002002F0BBFED32002F0B8FEC9
:10240000002002F0B5FEDD2002F0B2FE002002F056
:10241000AFFEF32002F0ACFE002002F0A9FEE520A2
:1024200002F0B2FE002002F0A3FE002002F0A0FEA7
:10243000002002F09DFE002002F09AFE022002F031
:1024400097FE002002F094FE292002F091FE002069
:1024500002F08EFE3C2002F08BFE002002F088FE8F
:102460004B2002F085FE002002F082FE5D2002F08B
:102470007FFE002002F07CFE742002F079FE002036
:1024800002F076FE842002F073FE002002F070FE5F
:10249000932002F06DFE002002F06AFEA22002F0FE
:1024A00067FE002002F064FEB32002F061FE00200F
:1024B00002F05EFEBE2002F05BFE002002F058FE3D
:1024C000C42002F055FE002002F052FECD2002F0A2
:1024D0004FFE002002F04CFED32002F049FE002007
:1024E00002F046FEDC2002F043FE002002F040FE37
:1024F000F32002F03DFE002002F03AFEE62002F05A
:1025000043FE112002F034FE002002F031FE3420A0
:1025100002F02EFE002002F02BFE562002F028FED4
:10252000002002F025FE762002F022FE002002F0BC
:102530001FFE772002F01CFE002002F019FE66202C
:1025400002F016FE002002F013FE882002F010FEBA
:10255000002002F00DFE992002F00AFE002002F099
:1025600007FEBB2002F004FE002002F001FE9920CD
:1025700002F0FEFD002002F0FBFD662002F0F8FDF7
:10258000002002F0F5FD552002F0F2FD002002F0DF
:10259000EFFD552002F0ECFD002002F0E9FD4520A2
:1025A00002F0E6FD002002F0E3FD432002F0E0FD32
:1025B000002002F0DDFD442002F0DAFD002002F0F0
:1025C000D7FDE72002F0E0FD322002F0D1FD00202F
:1025D00002F0CEFD552002F0CBFD002002F0C8FD38
:1025E000762002F0C5FD002002F0C2FD662002F058
:1025F000BFFD002002F0BCFD672002F0B9FD002005
:1026000002F0B6FD672002F0B3FD002002F0B0FD3D
:10261000872002F0ADFD002002F0AAFD992002F013
:10262000A7FD002002F0A4FDBB2002F0A1FD0020C8
:1026300002F09EFD992002F09BFD002002F098FD23
:10264000772002F095FD002002F092FD442002F078
:102650008FFD002002F08CFD562002F089FD002045
:1026600002F086FD232002F083FD002002F080FDB1
:10267000332002F07DFD002002F07AFD452002F0BB
:1026800077FD002002F074FDE82002F07DFD0020BF
:1026900002F06EFD002002F06BFD992002F068FD53
:1026A000002002F065FD872002F062FD002002F0AC
:1026B0005FFD882002F05CFD002002F059FD7720CC
:1026C00002F056FD002002F053FD662002F050FD9E
:1026D000002002F04DFD882002F04AFD002002F0AB
:1026E00047FDAA2002F044FD002002F041FDBB207E
:1026F00002F03EFD002002F03BFD992002F038FD83
:10270000002002F035FD662002F032FD002002F0CC
:102710002FFD552002F02CFD002002F029FD552050
:1027200002F026FD002002F023FD442002F020FDEF
:10273000002002F01DFD442002F01AFD002002F0EE
:1027400017FD552002F014FD002002F011FDE920D4
:1027500002F01AFDAA2002F00BFD002002F008FD95
:10276000002002F005FD002002F002FD002002F032
:102770000BFDAA2002F0FCFCCF2002F005FD00209A
:1027800002F0F6FC002002F0F3FC002002F0F0FC66
:10279000002002F0EDFC002002F0EAFC002002F034
:1027A000E7FC002002F0E4FC002002F0E1FC002045
:1027B00002F0DEFC002002F0DBFC002002F0D8FC7E
:1027C000002002F0D5FC002002F0D2FC002002F034
:1027D000CFFC002002F0CCFC002002F0C9FC00205D
:1027E00002F0C6FCF02002F0CFFC002002F0C0FC9A
:1027F000502002F0BDFC002002F0BAFC002002F0E4
:10280000B7FC002002F0B4FCF32002F0BDFC002075
:1028100002F0AEFCF92002F0B7FC062002F0A8FCA2
:10282000102002F0A5FC292002F0A2FC002002F0FA
:102830009FFC3A2002F0A8FC552002F099FC1120E0
:1028400002F0A2FC642003F011FB292002F09CFCA2
:10285000352002F099FC002002F08AFC512002F0A1
:1028600093FCFF2002F084FC532002F08DFC2C200E
:1028700002F07EFC552002F087FC822002F078FCFA
:102880002C2002F081FC02F0E9B8FE48808845F275
:10289000105188427ED155214FF4704002F08AFCDD
:1028A000AA214FF2010002F085FC52214FF20200F2
:1028B00002F080FC08214FF2030002F07BFC0121B2
:1028C0004FF2040002F076FC0D214FF4304002F08C
:1028D00071FC0D214BF2010002F06CFC0D214BF25A
:1028E000020002F067FC34214FF4364002F062FC33
:1028F00034214BF2016002F05DFC34214BF20260A6
:1029000002F058FC0D214FF4314002F053FC0D2130
:102910004BF2011002F04EFC0D214BF2021002F0BE
:1029200049FC34214FF4374002F044FC34214BF28F
:10293000017002F03FFC34214BF2027002F03AFCCD
:1029400000214FF4324002F035FC00214BF201200F
:1029500002F030FC00214BF2022002F02BFC24217B
:102960004FF4384002F026FC24214BF6010002F01F
:1029700021FC24214BF6020002F01CFC01214FF443
:102980003F4002F017FC0F214FF4334002F012FCDD
:102990000F2100E0FEE34BF2013002F00BFC0F21AF
:1029A0004BF2023002F006FC34214FF4394002F0C1
:1029B00001FC34214BF6011002F0FCFB34214BF6F4
:1029C000021002F0F7FB08214FF4354002F0F2FB51
:1029D00008214BF2015002F0EDFB08214BF20250AE
:1029E00002F0E8FB03214FF4424002F0E3FB242114
:1029F0004FF43A4002F0DEFB24214BF6012002F0B6
:102A0000D9FB24214BF6022002F0D4FB00214FF425
:102A10003C4002F0CFFB78214BF6014002F0CAFBAC
:102A200000214BF6024002F0C5FB00214FF43D406F
:102A300002F0C0FB78214BF6015002F0BBFB0021F5
:102A40004BF6025002F0B6FB00214FF43E4002F07C
:102A5000B1FB64214BF6016002F0ACFB00214FF4A6
:102A6000514002F0A7FB33214DF2011002F0A2FB0E
:102A700000214DF2021002F09DFB34214DF20310B3
:102A800002F098FB00214DF2041002F093FB3A2172
:102A90004DF2051002F08EFB00214DF2061002F0FF
:102AA00089FB4A214DF2071002F084FB00214DF210
:102AB000081002F07FFB5C214DF2091002F07AFB56
:102AC00000214DF20A1002F075FB81214DF20B102E
:102AD00002F070FB00214DF20C1002F06BFBA621FE
:102AE0004DF20D1002F066FB00214DF20E1002F0C7
:102AF00061FBE5214DF20F1002F05CFB01214DF26C
:102B0000101002F057FB13214DF2111002F052FB8E
:102B100001214DF2121002F04DFB54214DF2131021
:102B200002F048FB01214DF2141002F043FB822118
:102B30004DF2151002F03EFB01214DF2161002F08D
:102B400039FBCA214DF2171002F034FB02214DF27D
:102B5000181002F02FFB00214DF2191002F02AFB91
:102B600002214DF21A1002F025FB01214DF21B103B
:102B700002F020FB02214DF21C1002F01BFB34215D
:102B80004DF21D1002F016FB02214DF21E1002F054
:102B900011FB67214DF21F1002F00CFB02214DF2D8
:102BA000201002F007FB84214DF2211002F002FBFD
:102BB00002214DF2221002F0FDFAA4214DF2231061
:102BC00002F0F8FA02214DF2241002F0F3FAB721D4
:102BD0004DF2251002F0EEFA02214DF2261002F01D
:102BE000E9FACF214DF2271002F0E4FA02214DF26A
:102BF000281002F0DFFADE214DF2291002F0DAFA95
:102C000002214DF22A1002F0D5FAF2214DF22B10DA
:102C100002F0D0FA02214DF22C1002F0CBFAFE2184
:102C20004DF22D1002F0C6FA03214DF22E1002F0E3
:102C3000C1FA10214DF22F1002F0BCFA03214DF21F
:102C4000301002F0B7FA33214DF2311002F0B2FA2F
:102C500003214DF2321002F0ADFA6D214DF2331026
:102C600002F0A8FA00214FF4524002F0A3FA3321F7
:102C70004DF2012002F09EFA00214DF2022002F0F6
:102C800099FA01E0AC0C002034214DF2032002F04F
:102C900091FA00214DF2042002F08CFA3A214DF213
:102CA000052002F087FA00214DF2062002F082FA98
:102CB0004A214DF2072002F07DFA00214DF2082052
:102CC00002F078FA5C214DF2092002F073FA00213B
:102CD0004DF20A2002F06EFA81214DF20B2002F033
:102CE00069FA00214DF20C2002F064FAA6214DF29F
:102CF0000D2002F05FFA00214DF20E2002F05AFA88
:102D0000E5214DF20F2002F055FA01214DF210207D
:102D100002F050FA13214DF2112002F04BFA01217A
:102D20004DF2122002F046FA54214DF2132002F027
:102D300041FA01214DF2142002F03CFA82214DF2B9
:102D4000152002F037FA01214DF2162002F032FA76
:102D5000CA214DF2172002F02DFA02214DF218205F
:102D600002F028FA00214DF2192002F023FA022184
:102D70004DF21A2002F01EFA01214DF21B2002F042
:102D800019FA02214DF21C2002F014FA34214DF2FE
:102D90001D2002F00FFA02214DF21E2002F00AFA65
:102DA00067214DF21F2002F005FA02214DF220208A
:102DB00002F000FA84214DF2212002F0FBF90221F9
:102DC0004DF2222002F0F6F9A4214DF2232002F068
:102DD000F1F902214DF2242002F0ECF9B7214DF275
:102DE000252002F0E7F902214DF2262002F0E2F957
:102DF000CF214DF2272002F0DDF902214DF22820EB
:102E000002F0D8F9DE214DF2292002F0D3F9022197
:102E10004DF22A2002F0CEF9F2214DF22B2002F0E1
:102E2000C9F902214DF22C2002F0C4F9FE214DF225
:102E30002D2002F0BFF903214DF22E2002F0BAF945
:102E400010214DF22F2002F0B5F903214DF2302070
:102E500002F0B0F933214DF2312002F0ABF9032139
:102E60004DF2322002F0A6F96D214DF2332002F02E
:102E7000A1F900214FF4534002F09CF933214DF2A7
:102E8000013002F097F900214DF2023002F092F980
:102E900034214DF2033002F08DF900214DF204305F
:102EA00002F088F93A214DF2053002F083F9002151
:102EB0004DF2063002F07EF94A214DF2073002F061
:102EC00079F900214DF2083002F074F95C214DF2DD
:102ED000093002F06FF900214DF20A3002F06AF970
:102EE00081214DF20B3002F065F900214DF20C30DA
:102EF00002F060F9A6214DF20D3002F05BF90021DD
:102F00004DF20E3002F056F9E5214DF20F3002F08D
:102F100051F901214DF2103002F04CF913214DF21C
:102F2000113002F047F901214DF2123002F042F95E
:102F300054214DF2133002F03DF901214DF21430CD
:102F400002F038F982214DF2153002F033F90121F7
:102F50004DF2163002F02EF9CA214DF2173002F070
:102F600029F902214DF2183002F024F900214DF226
:102F7000193002F01FF902214DF21A3002F01AF94D
:102F800001214DF21B3002F015F902214DF21C30E7
:102F900002F010F934214DF21D3002F00BF902213C
:102FA0004DF21E3002F006F967214DF21F3002F09B
:102FB00001F902214DF2203002F0FCF884214DF29B
:102FC000213002F0F7F802214DF2223002F0F2F83F
:102FD000A4214DF2233002F0EDF802214DF224300D
:102FE00002F0E8F8B7214DF2253002F0E3F80221B3
:102FF0004DF2263002F0DEF8CF214DF2273002F0FC
:10300000D9F802214DF2283002F0D4F8DE214DF239
:10301000293002F0CFF802214DF22A3002F0CAF82E
:10302000F2214DF22B3002F0C5F802214DF22C3086
:1030300002F0C0F8FE214DF22D3002F0BBF8032162
:103040004DF22E3002F0B6F810214DF22F3002F082
:10305000B1F803214DF2303002F0ACF833214DF2DB
:10306000313002F0A7F803214DF2323002F0A2F81D
:103070006D214DF2333002F09DF800214FF45440A1
:1030800002F098F833214DF2014002F093F800214C
:103090004DF2024002F08EF834214DF2034002F06E
:1030A00089F800214DF2044002F084F83A214DF2F3
:1030B000054002F07FF800214DF2064002F07AF858
:1030C0004A214DF2074002F075F800214DF2084008
:1030D00002F070F85C214DF2094002F06BF800211B
:1030E0004DF20A4002F066F881214DF20B4002F0E9
:1030F00061F800214DF20C4002F05CF8A6214DF27F
:103100000D4002F057F800214DF20E4002F052F847
:10311000E5214DF20F4002F04DF801214DF2104033
:1031200002F048F813214DF2114002F043F801215A
:103130004DF2124002F03EF854214DF2134002F0DD
:1031400039F801214DF2144002F034F882214DF299
:10315000154002F02FF801214DF2164002F02AF836
:10316000CA214DF2174002F025F802214DF2184015
:1031700002F020F800214DF2194002F01BF8022164
:103180004DF21A4002F016F801214DF21B4002F0F8
:1031900011F800E004E302214DF21C4002F00AF8AD
:1031A00034214DF21D4002F005F802214DF21E407F
:1031B00002F000F867214DF21F4001F0FBFF0221F1
:1031C0004DF2204001F0F6FF84214DF2214001F044
:1031D000F1FF02214DF2224001F0ECFFA4214DF25B
:1031E000234001F0E7FF02214DF2244001F0E2FF0D
:1031F000B7214DF2254001F0DDFF02214DF22640BE
:1032000001F0D8FFCF214DF2274001F0D3FF02217A
:103210004DF2284001F0CEFFDE214DF2294001F0B1
:10322000C9FF02214DF22A4001F0C4FFF2214DF204
:103230002B4001F0BFFF02214DF22C4001F0BAFFFC
:10324000FE214DF22D4001F0B5FF03214DF22E403D
:1032500001F0B0FF10214DF22F4001F0ABFF032130
:103260004DF2304001F0A6FF33214DF2314001F024
:10327000A1FF03214DF2324001F09CFF6D214DF280
:10328000334001F097FF00214FF4554001F092FFC9
:1032900033214DF2015001F08DFF00214DF202501B
:1032A00001F088FF34214DF2035001F083FF00212B
:1032B0004DF2045001F07EFF3A214DF2055001F02D
:1032C00079FF00214DF2065001F074FF4A214DF2C2
:1032D000075001F06FFF00214DF2085001F06AFF26
:1032E0005C214DF2095001F065FF00214DF20A50BA
:1032F00001F060FF81214DF20B5001F05BFF0021D6
:103300004DF20C5001F056FFA6214DF20D5001F088
:1033100051FF00214DF20E5001F04CFFE5214DF21E
:103320000F5001F047FF01214DF2105001F042FF14
:1033300013214DF2115001F03DFF01214DF21250C9
:1033400001F038FF54214DF2135001F033FF0121F9
:103350004DF2145001F02EFF82214DF2155001F074
:1033600029FF01214DF2165001F024FFCA214DF230
:10337000175001F01FFF02214DF2185001F01AFF03
:1033800000214DF2195001F015FF02214DF21A50A3
:1033900001F010FF01214DF21B5001F00BFF022143
:1033A0004DF21C5001F006FF34214DF21D5001F08A
:1033B00001FF02214DF21E5001F0FCFE67214DF28B
:1033C0001F5001F0F7FE02214DF2205001F0F2FEF5
:1033D00084214DF2215001F0EDFE02214DF22250E8
:1033E00001F0E8FEA4214DF2235001F0E3FE02219A
:1033F0004DF2245001F0DEFEB7214DF2255001F0D0
:10340000D9FE02214DF2265001F0D4FECF214DF21B
:10341000275001F0CFFE02214DF2285001F0CAFEE4
:10342000DE214DF2295001F0C5FE02214DF22A5055
:1034300001F0C0FEF2214DF22B5001F0BBFE022143
:103440004DF22C5001F0B6FEFE214DF22D5001F050
:10345000B1FE03214DF22E5001F0ACFE10214DF2D1
:103460002F5001F0A7FE03214DF2305001F0A2FED3
:1034700033214DF2315001F09DFE03214DF23250C7
:1034800001F098FE6D214DF2335001F093FE0021C2
:103490004FF4564001F08EFE33214DF2016001F0F1
:1034A00089FE00214DF2026001F084FE34214DF2CC
:1034B000036001F07FFE00214DF2046001F07AFE0E
:1034C0003A214DF2056001F075FE00214DF20660D3
:1034D00001F070FE4A214DF2076001F06BFE002101
:1034E0004DF2086001F066FE5C214DF2096001F0CA
:1034F00061FE00214DF20A6001F05CFE81214DF277
:103500000B6001F057FE00214DF20C6001F052FEFD
:10351000A6214DF20D6001F04DFE00214DF20E602E
:1035200001F048FEE5214DF20F6001F043FE01215C
:103530004DF2106001F03EFE13214DF2116001F0DA
:1035400039FE01214DF2126001F034FE54214DF29A
:10355000136001F02FFE01214DF2146001F02AFEEC
:1035600082214DF2156001F025FE01214DF2166019
:1035700001F020FECA214DF2176001F01BFE02216E
:103580004DF2186001F016FE00214DF2196001F0B5
:1035900011FE02214DF21A6001F00CFE01214DF2E4
:1035A0001B6001F007FE02214DF21C6001F002FEDB
:1035B00034214DF21D6001F0FDFD02214DF21E602F
:1035C00001F0F8FD67214DF21F6001F0F3FD0221CB
:1035D0004DF2206001F0EEFD84214DF2216001F0FA
:1035E000E9FD02214DF2226001F0E4FDA4214DF23B
:1035F000236001F0DFFD02214DF2246001F0DAFDCD
:10360000B7214DF2256001F0D5FD02214DF2266073
:1036100001F0D0FDCF214DF2276001F0CBFD02215A
:103620004DF2286001F0C6FDDE214DF2296001F067
:10363000C1FD02214DF22A6001F0BCFDF2214DF2E4
:103640002B6001F0B7FD02214DF22C6001F0B2FDBC
:10365000FE214DF22D6001F0ADFD03214DF22E60F3
:1036600001F0A8FD10214DF22F6001F0A3FD032110
:103670004DF2306001F09EFD33214DF2316001F0DA
:1036800099FD03214DF2326001F094FD6D214DF260
:10369000336001F08FFD55214FF4704001F08AFD39
:1036A000AA214FF2010001F085FD52214FF20200E4
:1036B00001F080FD08214FF2030001F07BFD0021A5
:1036C0004FF2040001F076FDCC214FF4314001F0BF
:1036D00071FD00214BF2011001F06CFD05214FF44A
:1036E000364001F067FD70214FF4374001F062FD74
:1036F00070214BF2017001F05DFD01214FF4384063
:1037000001F058FD03214BF6010001F053FD0321A8
:103710004BF6020001F04EFD03214BF6030001F0D1
:1037200049FD02214FF43C4001F044FD00214BF6DD
:10373000014001F03FFD00214BF6024001F03AFD4F
:10374000D0214FF4494001F035FD02214CF6011023
:1037500001F030FD50214CF6021001F02BFD5021FC
:103760004CF6031001F026FD50214CF6041001F038
:1037700021FD00214FF4545001F01CFD55214FF460
:10378000685001F017FD4FF4885001F0FDFC7820DF
:1037900002F088FB4FF4245001F0F6FC01F05EB912
:1037A000FE48808849F2253188427DD147F6F001F4
:1037B000E52001F0FFFC4FF48071012001F0FAFCDC
:1037C0004FF4E061022001F0F5FC41F230010320EA
:1037D00001F0F0FC0021042001F0ECFC40F2022199
:1037E000082001F0E7FC0021092001F0E3FC0021A2
:1037F0000A2001F0DFFC00210C2001F0DBFC00219D
:103800000D2001F0D7FC00210F2001F0D3FC002196
:10381000102001F0CFFC0721112001F0CBFC00218A
:10382000122001F0C7FC0021132001F0C3FC00218D
:10383000072001F0BFFC41F29061102001F0BAFCBA
:1038400040F22721112001F0B5FC9D21122001F04A
:10385000B1FC4FF4C851132001F0ACFC2521292004
:1038600001F0A8FC0D212B2001F0A4FC0721302041
:1038700001F0A0FC40F20331312001F09BFC032158
:10388000322001F097FC40F20621352001F092FC35
:103890000821362001F08EFC40F20641372001F06D
:1038A00089FC4FF4417100E058E0382001F082FCBF
:1038B0000721392001F07EFC40F202613C2001F03A
:1038C00079FC08213D2001F075FC0021502001F019
:1038D00071FCEF21512001F06DFC0021522001F01C
:1038E00069FC40F23F11532001F064FC4FF4274182
:1038F000602001F05FFC0121612001F05BFC0021F0
:103900006A2001F057FC0021802001F053FC0021C7
:10391000812001F04FFC0021822001F04BFC0021AE
:10392000832001F047FC0021842001F043FC0021AA
:10393000852001F03FFC1021902001F03BFC4FF46A
:10394000C061922001F036FC40F23311072001F0F3
:1039500031FC2221002001F02DFC1FE78F488088D8
:1039600049F2283188427DD141F28F01EC2001F0EB
:1039700021FC41F23421EF2001F01CFC4FF4807156
:10398000012001F017FC4FF4E061022001F012FC6D
:1039900041F23001032001F00DFC0021042001F070
:1039A00009FC40F20221082001F004FC002109205A
:1039B00001F000FC00210A2001F0FCFB01210C2099
:1039C00001F0F8FB00210D2001F0F4FB00210F2095
:1039D00001F0F0FB0021102001F0ECFB0721112089
:1039E00001F0E8FB0021122001F0E4FB002113208C
:1039F00001F0E0FB0121072001F0DCFB322002F0A6
:103A000035FA41F29041102001F0D4FB40F2272119
:103A1000112001F0CFFB322002F028FA8A21122077
:103A200001F0C8FB322002F021FA4FF4D0511320EC
:103A300001F0C0FB0621292001F0BCFB0D212B2049
:103A400001F0B8FB322002F011FA0021202001F031
:103A5000B1FB0021212001F0ADFB322002F006FA7B
:103A6000002100E075E0302001F0A4FB40F2046189
:103A7000312001F09FFB40F20531322001F09AFB2A
:103A80000021352001F096FB40F60941362001F077
:103A900091FB4FF40171372001F08CFB40F20131B2
:103AA000382001F087FB40F20771392001F082FBDA
:103AB00000213C2001F07EFB40F60A213D2001F070
:103AC00079FB322002F0D2F90021502001F072FB84
:103AD000EF21512001F06EFB0021522001F06AFB22
:103AE00040F23F11532001F065FB4FF42741602065
:103AF00001F060FB0121612001F05CFB00216A20E4
:103B000001F058FB0021802001F054FB00218120AE
:103B100001F050FB0021822001F04CFB00218320AA
:103B200001F048FB0021842001F044FB00218520A6
:103B300001F040FB1021902001F03CFB4FF4C061EC
:103B4000922001F037FB40F23311072001F032FBE5
:103B500024E61248808849F2203188427ED1002133
:103B6000084601F027FB4FF48071012001F022FB91
:103B70004FF4E061022001F01DFB41F2300103200F
:103B800001F018FB0021042001F014FB40F2022197
:103B9000082001F00FFB0021092001E0AC0C0020FF
:103BA00001F008FB00210A2001F004FB01210C2098
:103BB00001F000FB00210D2001F0FCFA00210F2094
:103BC00001F0F8FA322002F051F940F20111072019
:103BD00001F0F0FA322002F049F94FF4865110203A
:103BE00001F0E8FA0721112001F0E4FA4FF488719E
:103BF000122001F0DFFA4FF43061132001F0DAFAFD
:103C00000021292001F0D6FA44F210012B2001F006
:103C1000D1FA0021502001F0CDFAEF21512001F01E
:103C2000C9FA0021522001F0C5FA40F23F11532099
:103C300001F0C0FA4FF41C51602001F0BBFA0121E1
:103C4000612001F0B7FA00216A2001F0B3FA0021E7
:103C5000802001F0AFFA0021812000E030E001F087
:103C6000A9FA0021822001F0A5FA0021832001F0A9
:103C7000A1FA0021842001F09DFA0021852001F0A5
:103C800099FA1021902001F095FA0021922001F07C
:103C900091FA0121932001F08DFA4FF4887195205B
:103CA00001F088FA0021972001F084FA0021982081
:103CB00001F080FA40F27311072001F07BFA6DE504
:103CC000FE48808849F2313188427DD141F21401A9
:103CD000E72001F06FFA4FF48071012001F06AFAD9
:103CE0004FF40071022001F065FA41F2380103201F
:103CF00001F060FA40F20221082001F05BFA002195
:103D0000092001F057FA00210A2001F053FA00219E
:103D10000C2001F04FFA00210D2001F04BFA002198
:103D20000F2001F047FA0021102001F043FA07218B
:103D3000112001F03FFA0021122001F03BFA00218E
:103D4000132001F037FAC82002F090F841F2906198
:103D5000102001F02FFA40F22721112001F02AFA59
:103D6000322002F083F80C21122001F023FA3220D5
:103D700002F07CF84FF40061132001F01BFA1121CE
:103D8000292001F017FA0B212B2001F013FA322021
:103D900002F06CF80021202001F00CFA40F23F11F3
:103DA000212001F007FA0021302001F003FA4FF43E
:103DB0008371312001F0FEF90021322001F0FAF97F
:103DC0004FF40171352000E064E001F0F3F941F2B5
:103DD0000A61362001F0EEF940F20771372001F058
:103DE000E9F94FF48371382001F0E4F940F20771EA
:103DF000392001F0DFF940F202413C2001F0DAF90C
:103E000040F60F413D2001F0D5F90021502001F08E
:103E1000D1F9EF21512001F0CDF90021522001F01C
:103E2000C9F940F23F11532001F0C4F94FF41C517D
:103E3000602001F0BFF90121612001F0BBF90021F0
:103E40006A2001F0B7F90021802001F0B3F90021C8
:103E5000812001F0AFF90021822001F0ABF90021AF
:103E6000832001F0A7F90021842001F0A3F90021AB
:103E7000852001F09FF91021902001F09BF94FF46B
:103E8000C061922001F096F940F23311072001F051
:103E900091F983E48948808845F2084188427DD1C0
:103EA0004FF48071012001F085F94FF4E0610220A8
:103EB00001F080F941F23001032001F07BF900218B
:103EC000042001F077F940F20721082001F072F98F
:103ED0000021092001F06EF900210A2001F06AF9A1
:103EE00000210C2001F066F900210D2001F062F99B
:103EF00000210F2001F05EF9142001F0B7FF41F21C
:103F0000B061102001F056F90121112001F052F9A1
:103F10000121172001F04EF94FF49C71122001F09D
:103F200049F94FF40061132001F044F909212920D7
:103F300001F040F909212A2001F03CF90021A420D8
:103F400001F038F90021502001F034F9EF2151201F
:103F500001F030F90021522001F02CF940F23F111C
:103F6000532001F027F94FF41C51602001F022F991
:103F70000121612001F01EF900216A2001F01AF9E7
:103F80000021802001F016F90021812001F012F9B2
:103F90000021822001F00EF9002100E024E08320BE
:103FA00001F008F90021842001F004F900218520A6
:103FB00001F000F91321902001F0FCF8002192207B
:103FC00001F0F8F80321932001F0F4F84FF4887120
:103FD000952001F0EFF840F27311072001F0EAF8A4
:103FE000322001F043FFB8E43448808841F20551A3
:103FF00088427DD10021072001F0DCF8322001F059
:1040000035FF4FF48E71122001F0D4F80121A42065
:1040100001F0D0F80F21082001F0CCF808210A2087
:1040200001F0C8F808210D2001F0C4F840F2077132
:10403000302001F0BFF80721312001F0BBF840F239
:104040000361322001F0B6F84FF4E061332001F053
:10405000B1F840F20221342001F0ACF80221352001
:1040600001F0A8F841F60F71362001F0A3F840F2F4
:104070000771372001F09EF80021382001F09AF8EE
:104080000021392001F096F840F207713A2001F042
:1040900091F800213B2001F08DF807213C2001F030
:1040A00089F800213D2001F085F8322001F0DEFE84
:1040B0000121072001F07EF8012101E0AC0C002075
:1040C000172001F077F8322001F0D0FE4FF4BD51F7
:1040D000102001F06FF840F21721112001F06AF86A
:1040E0004FF48F71122001F065F84FF4706100E019
:1040F00098E0132001F05EF800212A2001F05AF820
:104100000A21292001F056F84FF49F71122001F086
:1041100051F80021502001F04DF8EF21512001F01D
:1041200049F80021522001F045F840F23F11532098
:1041300001F040F84FF41C51602001F03BF80121E0
:10414000612001F037F800216A2001F033F80021E6
:10415000802001F02FF80021812001F02BF80021B0
:10416000822001F027F80021832001F023F80021AC
:10417000842001F01FF80021852001F01BF8132195
:10418000902001F017F84FF44071922001F012F8DE
:104190000521932001F00EF80021952001F00AF886
:1041A0000021972001F006F80021982001F002F884
:1041B0004FF48071012000F0FDFF4FF4E061022018
:1041C00000F0F8FF41F23801032000F0F3FF002176
:1041D000042000F0EFFF00210C2000F0EBFF002195
:1041E0000F2000F0E7FF0021202000F0E3FF002176
:1041F000212000F0DFFF2121072000F0DBFF142049
:1042000001F034FE6121072000F0D4FF142001F0FA
:104210002DFE40F27311072000F0CCFF142001F0B6
:1042200025FE95E4FE4880884BF2055188427CD1FA
:104230000021084600F0BEFF0021084600F0BAFF4A
:104240000021084600F0B6FF0021084600F0B2FF4A
:104250000121A42000F0AEFF142001F007FE4FF46E
:104260001C51602000F0A6FF40F20221082000F05F
:10427000A1FF4FF40571302000F09CFF43F215714F
:10428000312000F097FF40F20461322000F092FFED
:1042900040F61661332000F08DFF42F211213420E8
:1042A00000F088FF4FF4A851352000F083FF48F25A
:1042B0000751362000F07EFF41F20741372000F021
:1042C00079FF41F20341382000F074FF20213920AA
:1042D00000F070FF1A21902000F06CFF00211020E8
:1042E00000F068FF0721112000F064FF0021122078
:1042F00000F060FF0021132000F05CFF142001F0AB
:10430000B5FD4FF4E661102000F054FF40F2371184
:10431000112000F04FFF142001F0A8FD4FF4DC71D4
:10432000122000F047FF142000E085E001F09EFD20
:104330004FF47061132000F03DFF80212A2000F02F
:1043400039FF4821292000F035FF142001F08EFDAF
:104350004FF48071012000F02DFF4FF4E061022046
:1043600000F028FF41F23801032000F023FF40F263
:104370000221082000F01EFF00210A2000F01AFF91
:1043800000210C2000F016FF00210D2000F012FF8C
:1043900030210E2000F00EFF0021502000F00AFF17
:1043A000EF21512000F006FF0021522000F002FF13
:1043B00040F23F11532000F0FDFE4FF41C516020ED
:1043C00000F0F8FE0121612000F0F4FE00216A20D7
:1043D00000F0F0FE1121902000F0ECFE4FF4C061DF
:1043E000922000F0E7FE40F20241932000F0E2FE4E
:1043F0000221942000F0DEFE142001F037FD01219F
:10440000072000F0D7FE142001F030FD61210720C5
:1044100000F0D0FE40F27311072000F0CBFE002127
:10442000202000F0C7FE0021212000F0C3FE222141
:10443000002000F0BFFE11E3794880884CF205515E
:1044400088427CD10021084600F0B4FE00210846D5
:1044500000F0B0FE142001F009FD0021084600F034
:10446000A9FE0021084600F0A5FE0021084600F044
:10447000A1FE0021084600F09DFE0121A42000F0CD
:1044800099FE142001F0F2FC4FF41C51602000F062
:1044900091FE40F60601082000F08CFE40F2037108
:1044A000302000F087FE0121312000F083FE04213E
:1044B000322000F07FFE4FF48171332000F07AFE4D
:1044C0004FF44071342000F075FE40F203113520A6
:1044D00000F070FE1F21362000F06CFE40F20371E8
:1044E000372000F067FE0121382000F063FE042130
:1044F000392000F05FFE1521902000F05BFE4FF4A4
:104500008261102000F056FE40F24721112000F099
:1045100051FE4FF4DE71122000F04CFE4FF460614A
:10452000132000F047FE782001F0A0FC4FF48071CA
:10453000012000F03FFE4FF40071022000E052E045
:1045400000F038FE41F23001032000F033FE082174
:104550000A2000F02FFE00210C2000F02BFE20216D
:104560000E2000F027FE00210F2000F023FE002186
:10457000202000F01FFE0021212000F01BFE3D2125
:104580002A2000F017FE142001F070FC2D212920B4
:1045900000F010FE0021502000F00CFE4DF2EF0163
:1045A000512000F007FE0021522000F003FE40F2EF
:1045B0003F11532000F0FEFD0021612000F0FAFDC4
:1045C00000216A2000F0F6FD4FF44071922000F0C7
:1045D000F1FD0521932000F0EDFD4FF480710720DF
:1045E00000F0E8FD3AE20E48808844F231518842FA
:1045F0007ED10121002000F0DDFD0A2001F036FC13
:1046000041F22861102000F0D5FD0E21122000F0AB
:10461000D1FD40F63921132000F0CCFD0A2001E045
:10462000AC0C002001F022FC4021112000F0C2FD62
:104630005021152000F0BEFD0A2001F017FC1E21BC
:10464000122000F0B7FD0A2001F010FC4FF4B15128
:10465000102000F0AFFD42F63921132000F0AAFD32
:104660000A2001F003FC4FF48071012000F0A2FD4C
:104670004FF44071022000F09DFD41F2380103200B
:1046800000F098FD40F20221082000F093FD08217F
:104690000A2000F08FFD0021302000F08BFD40F259
:1046A0000241312000F086FD4FF48371322000F08A
:1046B00081FD40F20351332000F07CFD4FF4827104
:1046C000342000F077FD40F20131352000F072FD1A
:1046D00040F20771362000F06DFD40F205313720C1
:1046E00000F068FD4FF40271382000F063FD00E037
:1046F0003EE040F60B71392000F05CFD02214120C4
:1047000000F058FD4FF41C51602000F053FD0121D2
:10471000612000F04FFD4FF40471902000F04AFD3D
:104720004FF48571922000F045FD0421932000F0A4
:1047300041FD4FF48071A02000F03CFD01210720D5
:1047400000F038FD2121072000F034FD232107204F
:1047500000F030FD3321072000F02CFD40F2331132
:10476000072000F027FD0021A02000F023FD75E1C7
:10477000C048808844F2355188427CD130211520D0
:1047800000F018FD10219A2000F014FD20211120C6
:1047900000F010FD43F22841102000F00BFD022133
:1047A000122000F007FD41F23801132000F002FD55
:1047B000282001F05BFB1221084600F0FBFC2820BA
:1047C00001F054FB43F22041102000F0F3FC43F2CF
:1047D0003801132000F0EEFC462001F047FB0021D9
:1047E000302000F0E7FC40F20241312000F0E2FC12
:1047F00040F20731322000F0DDFC4FF441713320EC
:1048000000F0D8FC0421342000F0D4FC40F2014137
:10481000352000F0CFFC40F20771362000F0CAFCD2
:1048200040F20531372000F0C5FC4FF4C26138205A
:1048300000F0C0FC4FF4C261392000F0BBFC4FF423
:104840008071012000F0B6FC4FF44071022000F0AE
:10485000B1FC41F23001032000F0ACFC40F608014D
:10486000082000F0A7FC08210A2000F0A3FC4FF468
:104870001C51602000E033E000F09CFC012161202D
:1048800000F098FC4FF49F71902000F093FC4FF4DF
:104890008071922000F08EFC4FF48071932000F024
:1048A00089FC4FF44051A02000F084FC1021A3208B
:1048B00000F080FC0121072000F07CFC2121072072
:1048C00000F078FC2321072000F074FC332107203E
:1048D00000F070FC40F23311072000F06BFCBDE0EB
:1048E0006448808841F663118842F8D1E22000F0E4
:1048F0004BFC1D2000F03CFC022000F039FC0420A1
:1049000000F036FC642001F0CDFAE02000F03CFC21
:10491000012000F02DFC0A2001F0A8FAE02000F0B0
:1049200033FC032000F024FC0C2001F09FFA01204E
:1049300000F02AFC0A2001F099FAE62000F024FC9D
:104940002F2000F015FCFF2000F012FCFF2000F0EB
:104950000FFCB02000F018FC202000F009FC002023
:1049600000F006FC032000F003FC40F21F3000F0D2
:10497000FFFB012000F0FCFB40F2DF1000F0F8FB31
:10498000002000F0F5FBB42000F0FEFB042000F056
:10499000EFFB40F21F4000F0EBFB002000F0E8FBD3
:1049A0002E2000F0E5FB002000F0E2FB002000F0EC
:1049B000DFFB002000F0DCFB002000F0D9FBB6207C
:1049C00000F0E2FB022000F0D3FB4FF4037000F094
:1049D000CFFB002000F0CCFB172000F0C9FB152016
:1049E00000F0C6FB002000F0C3FB002000F0C0FB7D
:1049F000F02000F0C9FB032000F0BAFB292000F0F2
:104A0000C3FBD02000F0C0FB002000F0B1FBBE20B3
:104A100000F0BAFB052000F0ABFBFE2000F0A8FB85
:104A2000012000F0A5FB002000F0A2FB002000F018
:104A30009FFB002000F09CFBB82000F0A5FB0320AA
:104A400000F096FB012000F093FBBA2000F09CFBE5
:104A5000012000F08DFB642000F032F80020FCF70C
:104A6000C3F90120044908604FF6FF70FCF786F98E
:104A700021B000BDAC0C0020BC82404210B5024603
:104A8000012000E050430B1EA1F10104E1B2F9D175
:104A900010BD000008B5034800880090BDF8000074
:104AA00008BD00008000006C10B50446204600F0F0
:104AB0006BFB052001F0F6F9FFF7ECFF10BD0000DD
:104AC00070B52DED048B0446BE2000F05DFB052083
:104AD00000F04EFB204602F0A0F841EC190B9FEDD0
:104AE0000E0B53EC102B02F0ABF841EC180B02F05C
:104AF00067F885B2284600F03BFB012000F038FB48
:104B0000FF2000F035FB002000F032FB002000F019
:104B10002FFBBDEC048B70BD66666666666604405E
:104B2000F0B5054600240027B748807901280BD14D
:104B3000B548808846F60401884205D0B24880888E
:104B400041F66311884208D1AF488079F0B9AE4888
:104B5000808841F66311884218D1082D15D2DFE80C
:104B600005F00406080A0C0E101206250DE00725B4
:104B70000BE0042509E0052507E0012505E00025F7
:104B800003E0032501E0022500BF00BF9E488088A6
:104B900049F24131884217D09B48808846F604018B
:104BA000884211D09848808845F2103188420BD055
:104BB0009548808845F21051884205D092488088F7
:104BC00041F6631188427DD1082D1CD2DFE805F043
:104BD0000406090C0F12151800BF14E044F08004FD
:104BE00011E044F040040EE044F0C0040BE044F057
:104BF000200408E044F0600405E044F0A00402E072
:104C000044F0E00400BF00BF7F48808845F21051A7
:104C1000884202D14FF4585700E036277A488088FE
:104C200045F2103188420DD07748808845F2105106
:104C3000884207D07448808841F66311884201D0C9
:104C400044F008047048808846F60401884201D187
:104C500044F002042146384600F0ACFA6A488088E5
:104C600041F6631188421DD004F0200068B1664807
:104C7000008865494988884214DA63480688408874
:104C800061490880084646800CE05F4800885E491C
:104C90004988884206DD5C48068840885A49088071
:104CA000084646805848808845F21051884254D1C1
:104CB0005549488900F068FA002000F059FA524935
:104CC000498900E078E0491C88B200F05DFA0020D4
:104CD00000F04EFA4C494989891C88B200F054FA18
:104CE00049490988491EC1F30F2000F041FA46499D
:104CF0004989C91C88B200F047FA43490978491E1E
:104D0000C8B200F035FA4049888900F03DFA002029
:104D100000F02EFA3C498989491C88B200F034FA27
:104D2000002000F025FA38498989891C88B200F0F2
:104D30002BFA35494988491EC1F30F2000F018FAB3
:104D400031498989C91C88B200F01EFA2E49897838
:104D5000491EC8B200F00CFA55E02B49488900F012
:104D600013FA002000F004FA002000F001FA2649AE
:104D70000988491EC1F30F2000F0FAF92249097889
:104D8000491EC8B200F0F4F91F49888900F0FCF907
:104D9000002000F0EDF9002000F0EAF91A494988F6
:104DA000491EC1F30F2000F0E3F917498978491E25
:104DB000C8B200F0DDF926E0082D1CD2DFE805F0CE
:104DC00004070A0D0F12151844F0300413E044F0E4
:104DD000100410E044F020040DE000BF0BE044F0AC
:104DE000380408E044F0280405E044F0180402E028
:104DF00044F0080400BF00BF032744F48054214658
:104E0000384600F0D7F9F0BDAC0C002030B50446B0
:104E10000D466748808849F24131884205D0644890
:104E2000808845F21031884214D16149488900F0E8
:104E3000ABF9201200F09CF9E0B200F099F95C495E
:104E4000888900F0A1F9281200F092F9E8B200F088
:104E50008FF9ABE05648808846F6040188421DD1A0
:104E600053488079012804D151480088401E001B16
:104E700084B24F49488900F087F9201200F078F990
:104E8000E0B200F075F94A49888900F07DF92812EE
:104E900000F06EF9E8B200F06BF987E044488088D2
:104EA00041F66311884247D141488079A8B940480A
:104EB0000088401E001B84B23D49488900F064F917
:104EC000002000F055F9002000F052F9201200F007
:104ED0004FF9E0B200F04CF916E03549488900F08E
:104EE00053F9201200F044F9E0B200F041F93049E2
:104EF0000988491EC1F30F2000F03AF92C490978BE
:104F0000491EC8B200F034F92949888900F03CF9FB
:104F1000281200F02DF9E8B200F02AF92449498856
:104F2000491EC1F30F2000F023F921498978491E59
:104F3000C8B200F01DF939E01D48808845F21051D3
:104F4000884220D11A49488900F01EF9201200F049
:104F50000FF917494989491C88B200F015F9E0B2E8
:104F600000F006F91249888900F00EF9281200F0C5
:104F7000FFF80F498989491C88B200F005F9E8B2A9
:104F800000F0F6F812E00A488079012804D10848B8
:104F90000088401E001B84B205494889214600F064
:104FA00009F903498889294600F004F930BD000059
:104FB000AC0C00202DE9F84F80460E4617461C46E3
:104FC000B3462046E31704EB5373DB1021464FEA48
:104FD000E47C04EB5C7C4FEAEC0CA4EBCC0CBCF165
:104FE000000F02D04FF0010C01E04FF0000C6344C1
:104FF000224604EBD27C4FEA6C0C03FB0CF3DBB2D1
:105000000093A7F12000C7B2002556E00C2C07D171
:1050100007EB47002B4901EB800010F8059013E0E7
:10502000102C05D1284800EB071010F805900BE074
:10503000182C07D107EBC700244901EB800010F8BA
:10504000059001E0BDE8F88F4FF0000A2FE009F06D
:10505000800030B11E48028831464046FBF7A4FF6D
:1050600007E00A9828B91B48028831464046FBF7FA
:105070009BFF4FEA49604FEA1069701C86B21648E0
:105080004088B04200DCDDE7A6EB0B00A0420AD16D
:105090005E4608F101001FFA80F80F48008840457D
:1050A00000DCCFE706E00AF1010000F0FF0ABAF1E8
:1050B000080FCCDB00BF681CC5B200988542A5DB99
:1050C00000BFBFE7466E0008BA720008AA78000861
:1050D0007606002078060020AC0C00202DE9FF4F5A
:1050E00081B0074691461E460E9D4FF0000A0024EF
:1050F00039E0301B401EC1B20A20FFF7BFFCB9FBEC
:10510000F0F00A21B0FBF1F201FB1208BAF1000F36
:1051100016D1701EA04213DDB8F1000F0ED1002091
:10512000AB4605EBDB71491001FB0471009088B2BE
:105130002B4620220299FFF73DFF12E04FF0010AB3
:105140000020AB4605EBDB71491001FB04710090B8
:1051500088B208F13001CAB22B460299FFF72AFF44
:1051600000BF601CC4B2B442C3DB05B0BDE8F08F21
:1051700001B5BDF800000090BDF8000001490880AD
:1051800008BD00008000006C01B5BDF80000009073
:10519000BDF800000149088008BD00007E00006CD9
:1051A000024800890249088070470000AC0C0020CA
:1051B0007E00006C034A10804FF0D842A2F88010A5
:1051C000704700007E00006C00BFFEE770470000E3
:1051D00002490143024A1160704700000000FA05CD
:1051E0000CED00E07047000029B1064A1268024346
:1051F000044B1A6004E0034A12688243014B1A60B0
:10520000704700003038024029B1064A1268024354
:10521000044B1A6004E0034A12688243014B1A608F
:10522000704700003838024029B1064A126802432C
:10523000044B1A6004E0034A12688243014B1A606F
:10524000704700002038024029B1064A1268024324
:10525000044B1A6004E0034A12688243014B1A604F
:10526000704700004438024029B1064A12680243E0
:10527000044B1A6004E0034A12688243014B1A602F
:10528000704700002438024021B1028842F04002F9
:10529000028004E002884FF6BF731A400280704714
:1052A00010B504462448844208D101218014FFF738
:1052B000DBFF0021A014FFF7D7FF3CE01F4884422A
:1052C00008D101210014FFF7AFFF00212014FFF7E0
:1052D000ABFF30E01A48844208D10121C013FFF728
:1052E000A3FF0021E013FFF79FFF24E0154884424D
:1052F00008D101214014FFF7B7FF00216014FFF728
:10530000B3FF18E01048844209D101210805FFF7D6
:10531000ABFF00214FF48010FFF7A6FF0BE00B4816
:10532000844208D101214805FFF79EFF00214FF478
:105330000010FFF799FF10BD003001400038004019
:10534000003C004000340140005001400054014046
:105350000246002013890B400BB1012000E0002021
:1053600070470146888970478181704710B50022D7
:10537000028802F441520B884C8823438C882343D3
:10538000CC8823430C8923434C8923438C892343B2
:10539000CC8923431A430280838B4FF2FF7423404E
:1053A00083830B8A038210BD01461C48814201D2CF
:1053B000002070471A48814201D20820F9E71948B5
:1053C000814201D21020F4E71748814201D218200F
:1053D000EFE71648814201D22020EAE714488142D3
:1053E00001D22820E5E71348814201D23020E0E7CE
:1053F0001148814201D23820DBE71048814201D2B6
:105400004020D6E70E48814201D24820D1E70D481E
:10541000814201D25020CCE75820CAE70040000862
:105420000080000800C00008000001080000020819
:1054300000000408000006080000080800000A0830
:1054400000000C0800000E080146086870470000C4
:105450002DE9F04704460E4617464FF0090800258F
:10546000A946B4F1006F02D304F0030008B1BDE80F
:10547000F087FBF729F90020FBF776F8254607EBC4
:1054800004091848854215D211E02846FFF7DCFFD1
:10549000401C58B12846FFF787FF82460221FBF7E0
:1054A00075F88046B8F1090F01D002E02D1D4D4579
:1054B000EBD300BFB8F1090F0CD108E031782046DA
:1054C000FBF7DCF8092800D003E0641C761C4C458F
:1054D000F4D300BF0120FBF747F8FBF7C5F800BF86
:1054E000C5E700000000FF1F704700000CB500205A
:1054F000019000903448006840F4803032490860E0
:1055000000BF3148006800F4003000900198401C52
:105510000190009818B90198B0F5A04FF1D12A4830
:10552000006800F4003010B10120009001E000207C
:1055300000900098012846D123484030006840F090
:1055400080502149403108602048006840F44040C4
:105550001E4908601C48083000681B490831086073
:105560000846006840F4004008600846006840F4BF
:10557000A05008601648091F0860081F006840F026
:105580008070091F086000BF0F48006800F00070BD
:105590000028F9D040F205700E4908600A4808302A
:1055A000006820F0030008490831086008460068D8
:1055B00040F00200086000BF03480830006800F0B7
:1055C0000C000828F8D10CBD0038024000700040E3
:1055D00008544007003C0240042808D14FF0E02165
:1055E000096941F004014FF0E022116107E04FF03A
:1055F000E021096921F004014FF0E02211617047B8
:105600007047000010B51548006840F47000134959
:1056100008601348006840F001001149086000204C
:105620000F49083108600E4800680E4908400C49CF
:1056300008600D48091D0860081F006820F48020DC
:10564000091F0860002006490C310860FFF74EFF73
:105650004FF0006001498039086010BD88ED00E01E
:1056600000380240FFFFF6FE103000242DE9F04F15
:10567000ADF2646D834600209E909D9000259C9025
:105680000A2705900490002603901FA8FBF7AAFAAA
:10569000322739461FA8FBF7B7FA002F22DD48480A
:1056A000008802909FA94748FBF7E0F99C900A22E6
:1056B0009FA906A800F0AEFC4FF00109002408E005
:1056C000C4F1070006A9085C00FB09664FEA092936
:1056D000641C062CF4DB9DF821109DF8200001EBE2
:1056E00000200390701E4FF47A71B0FBF1F0401C63
:1056F00080B20590002550E032274FF47A7005FB08
:1057000000FA681C00EB4001C1EBC0100121C1EBA5
:10571000C00808F10100B04201D9A6F101081FFA42
:1057200088F21FFA8AF11FA8FBF7CEF99C90394640
:105730001FA8FBF769FA002F2EDD21480088029090
:105740009FAB9DAA9EA91F48FBF7F2F89C90BDF85D
:105750007412BDF87832C91A4A1C1B490968C81866
:105760009FA9FFF775FE102006230090BDF8782250
:10577000C8213220FFF7B2FC102006230090BDF8AC
:105780007422C8210846FFF7A9FC002400E0641C2D
:1057900008F101008442FAD36D1C05988542ABDB09
:1057A000B1B25846FAF7C2FE05460398A84205D0A2
:1057B0004FF0FF300DF2646DBDE8F08F0020F9E787
:1057C000B8080020CA0C00206C06002000BFFEE7CD
:1057D00010B502210648FBF79CF8642000F046FB58
:1057E00002210348FBF797F8642000F03FFB10BD4F
:1057F0000010024000B587B001218803FFF724FDA7
:1058000001211020FFF7F0FC01210846FFF7ECFC16
:1058100001210846FFF7E8FC01210846FFF7E4FCF8
:1058200001210803FFF710FD01211020FFF7DCFC28
:10583000052207214348FBF740F80522062141488D
:10584000FBF73BF8052211463E48FBF736F805A862
:10585000FBF763F801208DF8180000208DF81A007E
:1058600001208DF81B0002208DF81900059005A974
:105870003548FAF7DAFF012005908DF8180000206E
:105880008DF81A008DF8190002208DF81B0005A96B
:105890002D48FAF7CAFF05A8FBF73FF802208DF85C
:1058A00018008DF819008020059005A92548FAF701
:1058B000BCFF05A8FBF731F802208DF818008DF821
:1058C00019004020059005A91E48FAF7AEFF05A86B
:1058D000FBF723F802208DF818008DF8190020201E
:1058E000059005A91748FAF7A0FF1848FFF7D8FC5C
:1058F0000020ADF80000ADF80400ADF80600ADF8EA
:1059000008004FF40070ADF80A000820ADF80C0054
:105910000020ADF80E000720ADF810004FF48270A3
:10592000ADF8020069460948FFF720FD012107484C
:10593000FFF7AAFC01210448FAF7EBFFFFF748FF45
:1059400007B000BD000002400010024000300140DE
:1059500070B504461049886880470F490869804738
:1059600000BF0D48C169C4F3074088470A48C169B0
:10597000C4F307208847E0B2074AD169884706493F
:105980008869804705460449486980470249C868D4
:105990008047284670BD00008C0800202DE9F041AA
:1059A00004460E461746134988688047114908691E
:1059B000804700BF0F48C169C4F3074088470D48BE
:1059C000C169C4F307208847E0B20A4AD169884711
:1059D000002504E007498869804770556D1CBD4269
:1059E000F8DB0449486980470249C8688047BDE838
:1059F000F08100008C08002070B504460D46104967
:105A0000886880470E490869804744F004040C48C0
:105A1000C169C4F3074088470948C169C4F3072036
:105A20008847E0B2064AD16988470548C1692846D7
:105A300088470349486980470149C868804770BD65
:105A40008C0800202DE9F04104460E461746134904
:105A50008868804711490869804744F004040F486A
:105A6000C169C4F3074088470C48C169C4F30720E3
:105A70008847E0B2094AD1698847002504E0705D93
:105A8000064AD16988476D1CBD42F8DB0349486965
:105A900080470249C8688047BDE8F0818C08002033
:105AA00010B501210148FAF734FF10BD0010024083
:105AB00010B5044600BF02210A48FFF749FC002840
:105AC000F9D021460748FFF74FFC00BF01210548E8
:105AD000FFF73EFC0028F9D00248FFF742FCC0B2B5
